{
  "contractName": "MyApp",
  "abi": [
    {
      "constant": true,
      "inputs": [
        {
          "name": "",
          "type": "uint256"
        },
        {
          "name": "",
          "type": "uint256"
        }
      ],
      "name": "owners",
      "outputs": [
        {
          "name": "",
          "type": "address"
        }
      ],
      "payable": false,
      "stateMutability": "view",
      "type": "function",
      "signature": "0x33764f53"
    },
    {
      "constant": true,
      "inputs": [
        {
          "name": "",
          "type": "address"
        }
      ],
      "name": "manufacturers",
      "outputs": [
        {
          "name": "exists",
          "type": "bool"
        },
        {
          "name": "name",
          "type": "string"
        },
        {
          "name": "_address",
          "type": "address"
        }
      ],
      "payable": false,
      "stateMutability": "view",
      "type": "function",
      "signature": "0x6b5eb09c"
    },
    {
      "constant": true,
      "inputs": [
        {
          "name": "",
          "type": "uint256"
        }
      ],
      "name": "products",
      "outputs": [
        {
          "name": "exists",
          "type": "bool"
        },
        {
          "name": "id",
          "type": "uint256"
        },
        {
          "name": "name",
          "type": "string"
        },
        {
          "name": "model",
          "type": "string"
        },
        {
          "name": "manufacturer",
          "type": "address"
        },
        {
          "name": "curOwner",
          "type": "address"
        }
      ],
      "payable": false,
      "stateMutability": "view",
      "type": "function",
      "signature": "0x7acc0b20"
    },
    {
      "constant": true,
      "inputs": [],
      "name": "owner",
      "outputs": [
        {
          "name": "",
          "type": "address"
        }
      ],
      "payable": false,
      "stateMutability": "view",
      "type": "function",
      "signature": "0x8da5cb5b"
    },
    {
      "inputs": [],
      "payable": false,
      "stateMutability": "nonpayable",
      "type": "constructor",
      "signature": "constructor"
    },
    {
      "anonymous": false,
      "inputs": [
        {
          "indexed": false,
          "name": "name",
          "type": "string"
        },
        {
          "indexed": false,
          "name": "_address",
          "type": "address"
        }
      ],
      "name": "ManufacturerCreated",
      "type": "event",
      "signature": "0xb221316567f463674f49cbde1b8ee91580960ece70679c5a79bf92f916d8a028"
    },
    {
      "anonymous": false,
      "inputs": [
        {
          "indexed": false,
          "name": "id",
          "type": "uint256"
        },
        {
          "indexed": false,
          "name": "manufacturer",
          "type": "address"
        }
      ],
      "name": "ProductCreated",
      "type": "event",
      "signature": "0xe8bb4e90e950f7b76a8c4e472b3b5e01d41c478f9eeaea36b4ba991f51133f91"
    },
    {
      "anonymous": false,
      "inputs": [
        {
          "indexed": false,
          "name": "id",
          "type": "uint256"
        },
        {
          "indexed": false,
          "name": "newOwner",
          "type": "address"
        }
      ],
      "name": "OwnershipUpdated",
      "type": "event",
      "signature": "0x17f6791f79c251dfe73501956852b1099624d6a4c5ce9744ad98825c5b8dd91a"
    },
    {
      "constant": false,
      "inputs": [
        {
          "name": "_name",
          "type": "string"
        },
        {
          "name": "_address",
          "type": "address"
        }
      ],
      "name": "createManufacturer",
      "outputs": [],
      "payable": false,
      "stateMutability": "nonpayable",
      "type": "function",
      "signature": "0x5d50e808"
    },
    {
      "constant": false,
      "inputs": [
        {
          "name": "_name",
          "type": "string"
        },
        {
          "name": "_model",
          "type": "string"
        }
      ],
      "name": "createProduct",
      "outputs": [],
      "payable": false,
      "stateMutability": "nonpayable",
      "type": "function",
      "signature": "0x87592bce"
    },
    {
      "constant": true,
      "inputs": [
        {
          "name": "_id",
          "type": "uint256"
        }
      ],
      "name": "getOwners",
      "outputs": [
        {
          "name": "",
          "type": "address[]"
        }
      ],
      "payable": false,
      "stateMutability": "view",
      "type": "function",
      "signature": "0xee4525d5"
    },
    {
      "constant": false,
      "inputs": [
        {
          "name": "_id",
          "type": "uint256"
        },
        {
          "name": "_newOwner",
          "type": "address"
        }
      ],
      "name": "updateOwnership",
      "outputs": [],
      "payable": false,
      "stateMutability": "nonpayable",
      "type": "function",
      "signature": "0xcc0266f7"
    }
  ],
  "bytecode": "0x6080604052600060015534801561001557600080fd5b5060008054600160a060020a03191633179055610d8f806100376000396000f3fe60806040526004361061008d5763ffffffff7c010000000000000000000000000000000000000000000000000000000060003504166333764f5381146100925780635d50e808146100de5780636b5eb09c1461019e5780637acc0b201461026357806387592bce146103af5780638da5cb5b146104e9578063cc0266f7146104fe578063ee4525d514610537575b600080fd5b34801561009e57600080fd5b506100c2600480360360408110156100b557600080fd5b50803590602001356105b1565b60408051600160a060020a039092168252519081900360200190f35b3480156100ea57600080fd5b5061019c6004803603604081101561010157600080fd5b81019060208101813564010000000081111561011c57600080fd5b82018360208201111561012e57600080fd5b8035906020019184600183028401116401000000008311171561015057600080fd5b91908080601f01602080910402602001604051908101604052809392919081815260200183838082843760009201919091525092955050509035600160a060020a031691506105e89050565b005b3480156101aa57600080fd5b506101d1600480360360208110156101c157600080fd5b5035600160a060020a031661079d565b604080518415158152600160a060020a03831691810191909152606060208083018281528551928401929092528451608084019186019080838360005b8381101561022657818101518382015260200161020e565b50505050905090810190601f1680156102535780820380516001836020036101000a031916815260200191505b5094505050505060405180910390f35b34801561026f57600080fd5b5061028d6004803603602081101561028657600080fd5b5035610857565b6040518087151515158152602001868152602001806020018060200185600160a060020a0316600160a060020a0316815260200184600160a060020a0316600160a060020a03168152602001838103835287818151815260200191508051906020019080838360005b8381101561030e5781810151838201526020016102f6565b50505050905090810190601f16801561033b5780820380516001836020036101000a031916815260200191505b50838103825286518152865160209182019188019080838360005b8381101561036e578181015183820152602001610356565b50505050905090810190601f16801561039b5780820380516001836020036101000a031916815260200191505b509850505050505050505060405180910390f35b3480156103bb57600080fd5b5061019c600480360360408110156103d257600080fd5b8101906020810181356401000000008111156103ed57600080fd5b8201836020820111156103ff57600080fd5b8035906020019184600183028401116401000000008311171561042157600080fd5b91908080601f016020809104026020016040519081016040528093929190818152602001838380828437600092019190915250929594936020810193503591505064010000000081111561047457600080fd5b82018360208201111561048657600080fd5b803590602001918460018302840111640100000000831117156104a857600080fd5b91908080601f0160208091040260200160405190810160405280939291908181526020018383808284376000920191909152509295506109b0945050505050565b3480156104f557600080fd5b506100c2610b2b565b34801561050a57600080fd5b5061019c6004803603604081101561052157600080fd5b5080359060200135600160a060020a0316610b3a565b34801561054357600080fd5b506105616004803603602081101561055a57600080fd5b5035610c5c565b60408051602080825283518183015283519192839290830191858101910280838360005b8381101561059d578181015183820152602001610585565b505050509050019250505060405180910390f35b6004602052816000526040600020818154811015156105cc57fe5b600091825260209091200154600160a060020a03169150829050565b600054600160a060020a0316331461068757604080517f08c379a000000000000000000000000000000000000000000000000000000000815260206004820152603260248201527f4f6e6c79206f776e657220697320617574686f726973656420746f206372656160448201527f74652061206d616e756661637475726572210000000000000000000000000000606482015290519081900360840190fd5b600160a060020a0381166000908152600260209081526040909120805460ff191660019081178255845191926106c4929184019190860190610cc8565b5060028101805473ffffffffffffffffffffffffffffffffffffffff1916600160a060020a0384169081179091556040805160208082019390935281815285519181019190915284517fb221316567f463674f49cbde1b8ee91580960ece70679c5a79bf92f916d8a028928692869290918291606083019186019080838360005b8381101561075d578181015183820152602001610745565b50505050905090810190601f16801561078a5780820380516001836020036101000a031916815260200191505b50935050505060405180910390a1505050565b6002602081815260009283526040928390208054600180830180548751601f6000199483161561010002949094019091169690960491820185900485028601850190965280855260ff9091169491939283018282801561083e5780601f106108135761010080835404028352916020019161083e565b820191906000526020600020905b81548152906001019060200180831161082157829003601f168201915b50505060029093015491925050600160a060020a031683565b60036020908152600091825260409182902080546001808301546002808501805488516101009582161595909502600019011691909104601f810187900487028401870190975286835260ff9093169590949192918301828280156108fd5780601f106108d2576101008083540402835291602001916108fd565b820191906000526020600020905b8154815290600101906020018083116108e057829003601f168201915b5050505060038301805460408051602060026001851615610100026000190190941693909304601f810184900484028201840190925281815294959493509083018282801561098d5780601f106109625761010080835404028352916020019161098d565b820191906000526020600020905b81548152906001019060200180831161097057829003601f168201915b5050505060048301546005909301549192600160a060020a039081169216905086565b3360009081526002602052604090205460ff161515600114610a3357604080517f08c379a000000000000000000000000000000000000000000000000000000000815260206004820152601b60248201527f596f7520617265206e6f742061204d616e756661637475726572210000000000604482015290519081900360640190fd5b600180546000908152600360209081526040909120805460ff1916831781558254928101929092558351610a6f91600284019190860190610cc8565b508151610a859060038301906020850190610cc8565b50600481810180543373ffffffffffffffffffffffffffffffffffffffff19918216811790925560058401805482168317905560018054600090815260209485526040808220805480850182559083529186902090910180549093168417909255805480820190915581519081529283019190915280517fe8bb4e90e950f7b76a8c4e472b3b5e01d41c478f9eeaea36b4ba991f51133f919281900390910190a1505050565b600054600160a060020a031681565b60008281526003602052604090206005810154600160a060020a03163314610bc357604080517f08c379a000000000000000000000000000000000000000000000000000000000815260206004820152600e60248201527f4e6f7420617574686f72697a6564000000000000000000000000000000000000604482015290519081900360640190fd5b600581018054600160a060020a03841673ffffffffffffffffffffffffffffffffffffffff19918216811790925560008581526004602090815260408083208054600181018255908452928290209092018054909316841790925580518681529182019290925281517f17f6791f79c251dfe73501956852b1099624d6a4c5ce9744ad98825c5b8dd91a929181900390910190a1505050565b600081815260046020908152604091829020805483518184028101840190945280845260609392830182828015610cbc57602002820191906000526020600020905b8154600160a060020a03168152600190910190602001808311610c9e575b50505050509050919050565b828054600181600116156101000203166002900490600052602060002090601f016020900481019282601f10610d0957805160ff1916838001178555610d36565b82800160010185558215610d36579182015b82811115610d36578251825591602001919060010190610d1b565b50610d42929150610d46565b5090565b610d6091905b80821115610d425760008155600101610d4c565b9056fea165627a7a7230582022a6143ef78133bdb6d0bf2f8d958c3cdb8dcdab9f00e56c60c84724db3eb5240029",
  "source": "pragma solidity ^0.5.0;\r\n\r\ncontract MyApp {\r\n\r\n\t/*\r\n\t\tholds the address of the owner of the contract\r\n\t\towner -> the address which deploys this smart contract on the nwtwork.\r\n\t*/\r\n\taddress public owner;\r\n\t/*\r\n\t\tproductId is used to provide a unique ID to every product that is added.\r\n\t\tIt increments every time a new product is created.\r\n\t*/\r\n\tuint productId = 0;\r\n\r\n\t// define all custom structs\r\n\r\n\tstruct Manufacturer {\r\n\t\tbool exists;\r\n\t\tstring name;\r\n\t\taddress _address;\r\n\t}\r\n\r\n\tstruct Product {\r\n\t\tbool exists;\r\n\t\tuint id;\r\n\t\tstring name;\r\n\t\tstring model;\r\n\t\taddress manufacturer;\r\n\t\taddress curOwner;\r\n\t}\r\n\r\n\t// struct Customer {\r\n\t// \tbool exists;\r\n\t// \tstring name;\r\n\t// \taddress _address;\r\n\t// }\r\n\r\n\r\n\t// mapping(address => Customer) public customers;\r\n\tmapping(address => Manufacturer) public manufacturers;\r\n\tmapping(uint => Product) public products;\r\n\tmapping(uint => address[]) public owners;\r\n\r\n\r\n\t// events to be emitted when certain operatons are completed\r\n\tevent ManufacturerCreated(string name, address _address);\r\n\tevent ProductCreated(uint id, address manufacturer);\r\n\tevent OwnershipUpdated(uint id, address newOwner);\r\n\r\n\r\n\t/*\r\n\t\tConstructor is called when this contract is deployed on the network.\r\n\t\tIt sets the owner of the contract as the address which deploys it.\r\n\t*/\r\n\tconstructor() public {\r\n\t\towner = msg.sender;\r\n\t}\r\n\r\n\r\n\t/*\r\n\t\tUsed to create a new Manufacturer\r\n\t\tCan be called only by the owner of the contract\r\n\t*/\r\n\tfunction createManufacturer(string memory _name, address _address) public {\r\n\t\trequire(msg.sender == owner, \"Only owner is authorised to create a manufacturer!\");\r\n\r\n\t\tManufacturer storage m = manufacturers[_address];\r\n\t\tm.exists = true;\r\n\t\tm.name = _name;\r\n\t\tm._address = _address;\r\n\t\temit ManufacturerCreated(_name, _address);\r\n\t}\r\n\r\n\r\n\t/*\r\n\t\tUsed to create a new product\r\n\t\tCan be called only by the manufacturer\r\n\t*/\r\n\tfunction createProduct(string memory _name, string memory _model) public {\r\n\t\trequire(manufacturers[msg.sender].exists == true, \"You are not a Manufacturer!\");\r\n\r\n\t\tProduct storage p = products[productId];\r\n\t\tp.exists = true;\r\n\t\tp.id = productId;\r\n\t\tp.name = _name;\r\n\t\tp.model = _model;\r\n\t\tp.manufacturer = msg.sender;\r\n\t\tp.curOwner = msg.sender;\r\n\r\n\t\t// push cur owner(manufacturer) to owners array\r\n\t\towners[productId].push(msg.sender);\r\n\r\n\t\tproductId++;\r\n\t\temit ProductCreated(productId-1, msg.sender);\r\n\t}\r\n\r\n\r\n\t/*\r\n\t\tReturns a list of all the owners of a product\r\n\t\t- list[0] is the first owner (manufacturer)\r\n\t\t- last address in the list is the current owner\r\n\t*/\r\n\tfunction getOwners(uint _id) public view returns(address[] memory) {\r\n\t\treturn owners[_id];\r\n\t}\r\n\r\n\r\n\t/*\r\n\t\tThis function is called when an owner sells a product to new customer.\r\n\t\tIt updates the current owner of the product, and also adds them to owners list.\r\n\t\t* only the current owner of the product is allowed to sell it\r\n\t*/\r\n\tfunction updateOwnership(uint _id, address _newOwner) public {\r\n\t\tProduct storage p = products[_id];\r\n\t\trequire(p.curOwner == msg.sender, \"Not authorized\");\r\n\t\t\r\n\t\tp.curOwner = _newOwner;\r\n\t\towners[_id].push(_newOwner);\r\n\r\n\t\temit OwnershipUpdated(_id, _newOwner);\r\n\t}\r\n\r\n}",
  "sourcePath": "F:/Projects/Blockchain/fake-products/contracts/MyApp.sol",
  "compiler": {
    "name": "solc",
    "version": "0.5.0+commit.1d4f565a.Emscripten.clang"
  },
  "schemaVersion": "3.0.1",
  "updatedAt": "2021-05-08T04:44:34.456Z",
  "devdoc": {
    "methods": {}
  },
  "userdoc": {
    "methods": {}
  }
}