{
  "contractName": "MyApp",
  "abi": [
    {
      "constant": true,
      "inputs": [
        {
          "name": "",
          "type": "uint256"
        }
      ],
      "name": "products",
      "outputs": [
        {
          "name": "exists",
          "type": "bool"
        },
        {
          "name": "id",
          "type": "uint256"
        },
        {
          "name": "name",
          "type": "string"
        },
        {
          "name": "model",
          "type": "string"
        },
        {
          "name": "curOwner",
          "type": "address"
        }
      ],
      "payable": false,
      "stateMutability": "view",
      "type": "function",
      "signature": "0x7acc0b20"
    },
    {
      "constant": true,
      "inputs": [
        {
          "name": "",
          "type": "uint256"
        },
        {
          "name": "",
          "type": "uint256"
        }
      ],
      "name": "prevOwners",
      "outputs": [
        {
          "name": "",
          "type": "address"
        }
      ],
      "payable": false,
      "stateMutability": "view",
      "type": "function",
      "signature": "0x9db2b6ef"
    },
    {
      "inputs": [],
      "payable": false,
      "stateMutability": "nonpayable",
      "type": "constructor",
      "signature": "constructor"
    },
    {
      "anonymous": false,
      "inputs": [
        {
          "indexed": false,
          "name": "_id",
          "type": "uint256"
        },
        {
          "indexed": false,
          "name": "prevOwners",
          "type": "address[]"
        }
      ],
      "name": "ProductCreated",
      "type": "event",
      "signature": "0xb678ddd148599d3c3f77844ac71ad6d7c6e3f5ca65771499d69a4221673d2f0a"
    },
    {
      "anonymous": false,
      "inputs": [
        {
          "indexed": false,
          "name": "id",
          "type": "uint256"
        },
        {
          "indexed": false,
          "name": "prevOwners",
          "type": "address[]"
        }
      ],
      "name": "PrevOwnersList",
      "type": "event",
      "signature": "0x1cbcf5dedfc0101198e1eed61e27e5c64577aa6e6353b690e142175e55cc95d9"
    },
    {
      "anonymous": false,
      "inputs": [
        {
          "indexed": false,
          "name": "id",
          "type": "uint256"
        },
        {
          "indexed": false,
          "name": "newOwner",
          "type": "address"
        }
      ],
      "name": "OwnershipUpdated",
      "type": "event",
      "signature": "0x17f6791f79c251dfe73501956852b1099624d6a4c5ce9744ad98825c5b8dd91a"
    },
    {
      "constant": false,
      "inputs": [
        {
          "name": "_name",
          "type": "string"
        },
        {
          "name": "_model",
          "type": "string"
        }
      ],
      "name": "createProduct",
      "outputs": [],
      "payable": false,
      "stateMutability": "nonpayable",
      "type": "function",
      "signature": "0x87592bce"
    },
    {
      "constant": false,
      "inputs": [
        {
          "name": "_id",
          "type": "uint256"
        }
      ],
      "name": "getOwners",
      "outputs": [],
      "payable": false,
      "stateMutability": "nonpayable",
      "type": "function",
      "signature": "0xee4525d5"
    },
    {
      "constant": true,
      "inputs": [
        {
          "name": "_id",
          "type": "uint256"
        }
      ],
      "name": "isProductValid",
      "outputs": [
        {
          "name": "",
          "type": "bool"
        }
      ],
      "payable": false,
      "stateMutability": "view",
      "type": "function",
      "signature": "0x9598a5b1"
    },
    {
      "constant": false,
      "inputs": [
        {
          "name": "_id",
          "type": "uint256"
        },
        {
          "name": "_newOwner",
          "type": "address"
        }
      ],
      "name": "updateOwnership",
      "outputs": [],
      "payable": false,
      "stateMutability": "nonpayable",
      "type": "function",
      "signature": "0xcc0266f7"
    }
  ],
  "bytecode": "0x60806040526000805534801561001457600080fd5b506100986040805190810160405280600c81526020017f44656d6f2070726f6475637400000000000000000000000000000000000000008152506040805190810160405280600a81526020017f736f6d65206d6f64656c0000000000000000000000000000000000000000000081525061009d640100000000026401000000009004565b610264565b6000805481526001602081815260408320805460ff19168317815592549183019190915583516100d5916002840191908601906101c9565b5081516100eb90600383019060208501906101c9565b5060048101805433600160a060020a03199182168117909255600080548152600260209081526040808320805460018181018355828652848620909101805490961690961790945582549485019092558151848152908101828152835492820183905292937fb678ddd148599d3c3f77844ac71ad6d7c6e3f5ca65771499d69a4221673d2f0a939092859291906060830190849080156101b457602002820191906000526020600020905b8154600160a060020a03168152600190910190602001808311610196575b5050935050505060405180910390a150505050565b828054600181600116156101000203166002900490600052602060002090601f016020900481019282601f1061020a57805160ff1916838001178555610237565b82800160010185558215610237579182015b8281111561023757825182559160200191906001019061021c565b50610243929150610247565b5090565b61026191905b80821115610243576000815560010161024d565b90565b610902806102736000396000f3fe6080604052600436106100775763ffffffff7c01000000000000000000000000000000000000000000000000000000006000350416637acc0b20811461007c57806387592bce146101af5780639598a5b1146102eb5780639db2b6ef14610329578063cc0266f714610375578063ee4525d5146103ae575b600080fd5b34801561008857600080fd5b506100a66004803603602081101561009f57600080fd5b50356103d8565b6040518086151515158152602001858152602001806020018060200184600160a060020a0316600160a060020a03168152602001838103835286818151815260200191508051906020019080838360005b8381101561010f5781810151838201526020016100f7565b50505050905090810190601f16801561013c5780820380516001836020036101000a031916815260200191505b50838103825285518152855160209182019187019080838360005b8381101561016f578181015183820152602001610157565b50505050905090810190601f16801561019c5780820380516001836020036101000a031916815260200191505b5097505050505050505060405180910390f35b3480156101bb57600080fd5b506102e9600480360360408110156101d257600080fd5b8101906020810181356401000000008111156101ed57600080fd5b8201836020820111156101ff57600080fd5b8035906020019184600183028401116401000000008311171561022157600080fd5b91908080601f016020809104026020016040519081016040528093929190818152602001838380828437600092019190915250929594936020810193503591505064010000000081111561027457600080fd5b82018360208201111561028657600080fd5b803590602001918460018302840111640100000000831117156102a857600080fd5b91908080601f016020809104026020016040519081016040528093929190818152602001838380828437600092019190915250929550610524945050505050565b005b3480156102f757600080fd5b506103156004803603602081101561030e57600080fd5b503561065d565b604080519115158252519081900360200190f35b34801561033557600080fd5b506103596004803603604081101561034c57600080fd5b5080359060200135610672565b60408051600160a060020a039092168252519081900360200190f35b34801561038157600080fd5b506102e96004803603604081101561039857600080fd5b5080359060200135600160a060020a03166106a9565b3480156103ba57600080fd5b506102e9600480360360208110156103d157600080fd5b503561079f565b6001602081815260009283526040928390208054818401546002808401805488516101009882161598909802600019011691909104601f810186900486028701860190975286865260ff909216959094929383018282801561047b5780601f106104505761010080835404028352916020019161047b565b820191906000526020600020905b81548152906001019060200180831161045e57829003601f168201915b5050505060038301805460408051602060026001851615610100026000190190941693909304601f810184900484028201840190925281815294959493509083018282801561050b5780601f106104e05761010080835404028352916020019161050b565b820191906000526020600020905b8154815290600101906020018083116104ee57829003601f168201915b50505060049093015491925050600160a060020a031685565b6000805481526001602081815260408320805460ff191683178155925491830191909155835161055c9160028401919086019061083b565b508151610572906003830190602085019061083b565b506004810180543373ffffffffffffffffffffffffffffffffffffffff199182168117909255600080548152600260209081526040808320805460018181018355828652848620909101805490961690961790945582549485019092558151848152908101828152835492820183905292937fb678ddd148599d3c3f77844ac71ad6d7c6e3f5ca65771499d69a4221673d2f0a9390928592919060608301908490801561064857602002820191906000526020600020905b8154600160a060020a0316815260019091019060200180831161062a575b5050935050505060405180910390a150505050565b60009081526001602052604090205460ff1690565b60026020528160005260406000208181548110151561068d57fe5b600091825260209091200154600160a060020a03169150829050565b60008281526001602052604090206004810154600160a060020a0316331461073257604080517f08c379a000000000000000000000000000000000000000000000000000000000815260206004820152600e60248201527f4e6f7420617574686f72697a6564000000000000000000000000000000000000604482015290519081900360640190fd5b60048101805473ffffffffffffffffffffffffffffffffffffffff1916600160a060020a03841690811790915560408051858152602081019290925280517f17f6791f79c251dfe73501956852b1099624d6a4c5ce9744ad98825c5b8dd91a9281900390910190a1505050565b7f1cbcf5dedfc0101198e1eed61e27e5c64577aa6e6353b690e142175e55cc95d981600260008481526020019081526020016000206040518083815260200180602001828103825283818154815260200191508054801561082957602002820191906000526020600020905b8154600160a060020a0316815260019091019060200180831161080b575b5050935050505060405180910390a150565b828054600181600116156101000203166002900490600052602060002090601f016020900481019282601f1061087c57805160ff19168380011785556108a9565b828001600101855582156108a9579182015b828111156108a957825182559160200191906001019061088e565b506108b59291506108b9565b5090565b6108d391905b808211156108b557600081556001016108bf565b9056fea165627a7a7230582006b8a27f1f87a5d5ec3691ad244d39fd86ea83f752b4485619ab8e612e3f8ae30029",
  "source": "pragma solidity ^0.5.0;\r\n\r\ncontract MyApp {\r\n\r\n\tuint n = 0;\r\n\r\n\tstruct Product {\r\n\t\tbool exists;\r\n\t\tuint id;\r\n\t\tstring name;\r\n\t\tstring model;\r\n\t\taddress curOwner;\r\n\t}\r\n\r\n\tmapping(uint => Product) public products;\r\n\tmapping(uint => address[]) public prevOwners;\r\n\r\n\tevent ProductCreated(uint _id, address[] prevOwners);\r\n\tevent PrevOwnersList(uint id, address[] prevOwners);\r\n\tevent OwnershipUpdated(uint id, address newOwner);\r\n\r\n\tconstructor() public {\r\n\t\tcreateProduct(\"Demo product\", \"some model\");\r\n\t}\r\n\r\n\tfunction createProduct(string memory _name, string memory _model) public {\r\n\t\tProduct storage p = products[n];\r\n\r\n\t\tp.exists = true;\r\n\t\tp.id = n;\r\n\t\tp.name = _name;\r\n\t\tp.model = _model;\r\n\t\tp.curOwner = msg.sender;\r\n\t\taddress[] storage prevs = prevOwners[n];\r\n\t\tprevs.push(msg.sender);\r\n\r\n\t\tn++;\r\n\t\temit ProductCreated(n-1, prevs);\r\n\t}\r\n\r\n\tfunction getOwners(uint _id) public {\r\n\t\temit PrevOwnersList(_id, prevOwners[_id]);\r\n\t}\r\n\r\n\tfunction isProductValid(uint _id) public view returns(bool) {\r\n\t\treturn products[_id].exists;\r\n\t}\r\n\r\n\tfunction updateOwnership(uint _id, address _newOwner) public {\r\n\t\tProduct storage p = products[_id];\r\n\t\trequire(p.curOwner == msg.sender, \"Not authorized\");\r\n\t\t// address[] storage prevs = prevOwners[n];\r\n\t\t// p.prevOwners.push(p.curOwner);\r\n\t\tp.curOwner = _newOwner;\r\n\r\n\t\temit OwnershipUpdated(_id, _newOwner);\r\n\t}\r\n\r\n}",
  "sourcePath": "F:/Projects/Blockchain/fake-products/contracts/MyApp.sol",
  "compiler": {
    "name": "solc",
    "version": "0.5.0+commit.1d4f565a.Emscripten.clang"
  },
  "schemaVersion": "3.0.1",
  "updatedAt": "2021-05-01T09:24:03.583Z",
  "devdoc": {
    "methods": {}
  },
  "userdoc": {
    "methods": {}
  }
}